:020000040800F2
:10000000F0060020852C00081D0600081F060008C9
:1000100023060008270600082B0600080000000041
:100020000000000000000000000000002F06000893
:1000300031060008000000003306000835060008FD
:100040009F2C00089F2C00089F2C00089F2C000864
:100050009F2C00089F2C00089F2C00089F2C000854
:100060009F2C00089F2C00089F2C00089F2C000844
:100070009F2C00089F2C00089F2C00089F2C000834
:100080009F2C00089F2C00089F2C00089F2C000824
:100090009F2C00089F2C00089F2C00089F2C000814
:1000A0009F2C00089F2C00089F2C00089F2C000804
:1000B000930500089F2C00089F2C00089F2C000827
:1000C0009F2C00089F2C00089F2C00089F2C0008E4
:1000D0009F2C00081F0B00089F2C00089F2C000875
:1000E0009F2C00089F2C00089F2C00089F2C0008C4
:1000F0009F2C00089F2C00089F2C00089F2C0008B4
:100100009F2C00089F2C00089F2C00089F2C0008A3
:100110009F2C00089F2C00089F2C00089F2C000893
:100120009F2C00089F2C00089F2C00089F2C000883
:1001300000F002F800F047F80AA090E8000C8244B2
:100140008344AAF10107DA4501D100F03CF8AFF28F
:10015000090EBAE80F0013F0010F18BFFB1A43F0A5
:10016000010318471C4600003C460000103A24BF1B
:1001700078C878C1FAD8520724BF30C830C144BF0C
:1001800004680C607047000000230024002500264E
:10019000103A28BF78C1FBD8520728BF30C148BFEA
:1001A0000B607047662904F09E82002070471FB5DF
:1001B00002F0F0FF04000020002103F043FDE060A6
:1001C0001FBD10B510BD03F001F91146FFF7EFFF99
:1001D00000F0B5F903F01FF903B4FFF7F2FF03BC19
:1001E00000F06DFC30BF00000EB50121084601F0A3
:1001F0006CF942F20F70ADF804004720ADF8000032
:100200000020ADF80600ADF8020069464FF08040CE
:1002100001F0F8FA0121880702F02AF901221146BB
:10022000900701F066FE0121880701F047FE0EBD30
:1002300008B500214FF0006001F0DAF94FF4A0603A
:1002400001F09EF91C208DF8000000208DF80100BF
:100250008DF8020001208DF80300684601F095F941
:1002600025208DF8000001208DF801008DF8020096
:1002700000208DF80300684601F087F908BD2DE9DC
:10028000F04105460C46C9480168204604F0B6F91D
:100290000746C74904F0DCF80646C6480168304600
:1002A00003F09AFFC3490860C3484168C34804F09B
:1002B000A5F90646C0488168304604F09FF9C04958
:1002C0000860BD48C06880F000404860BA48C06817
:1002D00080F000408860BB48C8600868B44904F0FA
:1002E000B7F80646B4480168304603F075FFB249D6
:1002F0000860B3494868AE4904F0AAF80646AE481B
:100300004168304603F068FFAB494860AC498868F3
:10031000A74904F09DF80646A7488168304603F0D7
:100320005BFFA5498860A649C868A14904F090F818
:100330000646A148C168304603F04EFF9E49C8609A
:100340009C480168284604F059F99F4908609A487A
:1003500001684FF07E5004F07BF89C490860964895
:1003600081684FF07E5004F073F89949086097480F
:1003700001684FF07E5004F06BF806464FF07C5158
:1003800003F02AFF93490860084601688F48006817
:1003900003F084FF904908608E4801688C4800682B
:1003A00003F07CFF8D490860884800688C4908602C
:1003B000814841684FF07E5004F04AF8894908604E
:1003C000874801688448006804F042F806467A4885
:1003D0000168304604F008F97749086081480168EF
:1003E0007D48006804F034F806467348416830469A
:1003F00004F0FAF870494860794801687748006865
:1004000004F026F806466C488168304604F0ECF8A3
:1004100069498860734801687048006804F018F8FA
:1004200006466548C168304604F0DEF86249C86097
:10043000654801686848006804F00AF806465D48A7
:100440000168304603F0C8FE5A4908605E480168FA
:100450006248006803F0FCFF0646544801683046D5
:1004600003F0BAFE5149086008460168204604F0CE
:10047000C5F85D490860BDE8F0812DE9F05F022212
:100480003B215A4800F087FC58494978574A12786E
:1004900001EB022108B203F0C3FF5549086055493A
:1004A0005348006803F098FE04464FF08D4103F076
:1004B000F5FE514908600846006803F061FE804679
:1004C0004FF033324D4B03F05DFD064600224C4B9E
:1004D00003F058FD04464B4A4B4B03F0FBFB8246AE
:1004E00003F0C6FB44490860022245213F4800F062
:1004F00052FC3E4949783D4A127801EB022108B28C
:1005000003F08EFF3849086040493748006803F01F
:1005100063FE804603F034FE06464FF066323C4BE5
:1005200003F0D8FB044603F0A3FB2F4908600846FC
:10053000016831480068FFF7A2FEBDE8F09F1CB5D6
:10054000062000F01CFA482000F064F900F068FA78
:10055000FFF74AFEFFF76CFE00F0F8FA00F091FB9F
:1005600016E02148006803F00BFE04460D461148D2
:10057000006803F005FE064632460B4625A0CDE98D
:10058000004502F0A1FB00F0B2FA642000F078F917
:10059000E7E710B50121880701F059FF28B10121D3
:1005A000880701F065FFFFF768FF10BD000000201D
:1005B0000AD7233C48000020240000206F12833A11
:1005C0007C000020A69B443B040000200800002083
:1005D0000C00002010000020140000201800002053
:1005E0001C000020200000203800002034000020E3
:1005F0004000002000005C43440000203333F33F00
:10060000008066401F85EB51B81E094000009041F4
:10061000666630402566092566090000704700BF00
:10062000FEE700BFFEE700BFFEE700BFFEE7704742
:1006300070477047704700000CB500200190009093
:100640006B48006840F480306949086000BF684822
:10065000006800F4003000900198401C0190009860
:1006600018B90198B0F5A06FF1D16148006810F495
:10067000003F02D00120009001E00020009000988F
:10068000012842D15B48006840F0100059490860D9
:100690000846006820F0030008600846006840F043
:1006A0000200086052484068514948600846406866
:1006B00048600846406840F48060486008464068EA
:1006C00020F47C1048600846406840F4E810486018
:1006D0000846006840F08070086000BF4448006829
:1006E00010F0007FFAD04248406820F003004049F3
:1006F00048600846406840F00200486000BF3C483F
:10070000406800F00C000828F9D10CBD10B5FFF7C7
:1007100093FF10BD10B53648006840F00100344921
:100720000860084640683449084031494860084636
:100730000068324908402E4908600846006820F4E5
:10074000802008600846406820F4FE0048604FF4AE
:100750001F008860FFF7DAFF4FF00060284908604B
:1007600010BD10B5002100200022214B5B6803F072
:100770000C0121B1042906D0082928D107E0214B1A
:10078000214C236027E01F4B1F4C236023E0184BB4
:100790005B6803F47010164B5B6803F4803202232D
:1007A00003EB904022B9194B4343174C23600DE0F3
:1007B0000F4B5B6813F4003F04D0144B4343124CBF
:1007C000236003E00F4B43430F4C236003E00D4BCA
:1007D0000D4C236000BF00BF054B5B68C3F30313E0
:1007E0000B4CE15C084B1B68CB40074C236010BDF1
:1007F00000100240002002400000FFF8FFFFF6FE5C
:1008000008ED00E000127A004C00002000093D00D5
:10081000500000204FF0E021096921F004014FF061
:10082000E0221161C21700EB5272D210224B1A70F3
:100830001946097801EB4102C2EBC1114FF6FF7274
:1008400002EAC1011D4A1180704701461A4A127816
:100850004A434FF0E0235A6100229A6101221A6153
:1008600000BF4FF0E022106910F0010F02D010F429
:10087000803FF6D000224FF0E0231A619A61704762
:1008800001460E4A12884A434FF0E0235A61002283
:100890009A6101221A6100BF4FF0E022106910F046
:1008A000010F02D010F4803FF6D000224FF0E02379
:1008B0001A619A6170470000600000206200002009
:1008C00000204F490861C8601420486100208861F9
:1008D000C8610846006840F00100086008464068AA
:1008E000484908404649486008460068464908406B
:1008F000434908600846006820F4802008600846E4
:10090000406820F4FE00486000208860704710B501
:100910003E48006840F004003C4908603848C0691F
:1009200040F080503649C8613948406840F48070D2
:10093000374948600846006840F0040008600846EF
:10094000006840F002000860FFF74CFC10BD314821
:100950002E49091F0860704701464906284A9269D6
:1009600042F00102264B9A612B4A526822F0E06263
:10097000294B5A601A4652680A435A60704700B5BC
:1009800002460023FFF79CFF1D48006840F48030BA
:100990001B49086000BF1A480068400CFBD04FF4A8
:1009A000806017494860901EC2B20846406840EA1D
:1009B000824048600846406840F4803048601748EC
:1009C000006840F03200154908600D48006840F0AA
:1009D00080700B49086000BF09480068400EFBD0DA
:1009E0000748406840F002000549486005E00448B7
:1009F0004068C0F3870303F00303022BF7D100BD67
:100A0000001002400000FFF8FFFFF6FE10ED00E0CE
:100A1000007000400400FA05000001400020024080
:100A200000B587B0012144F2050000F041FD4FF40C
:100A30000070ADF8180003208DF81A0018208DF80A
:100A40001B0006A93E4800F07DFA4FF48060ADF827
:100A5000180048208DF81B0006A9394800F072FAEA
:100A60004FF4E13002900020ADF80C00ADF80E001C
:100A7000ADF81000ADF814000C20ADF81200002005
:100A8000ADF80000ADF802004FF40070ADF80400BE
:100A90000020ADF80600012240F22551294801F05E
:100AA000C6FD6946274801F09FFD02A9254801F0CF
:100AB00026FD0121234801F0AEFD07B000BD01462F
:100AC00000BF7047C2B21F4B1B1D1A8000BF1D4ADA
:100AD000128812F0400FFAD070471A49091D088099
:100AE00000BF1849098811F0400FFAD0704700B5CF
:100AF0000D20FFF7F2FF0A20FFF7EFFF00BD0AE02D
:100B000010F8011B0F4A121D118000BF0D49098802
:100B100011F0400FFAD001780029F1D1704710B5DB
:100B20002521084801F092FE0648008810F0200FA9
:100B300005D00448001D0188034800F0B7FA10BD35
:100B400000080140003801400010014000B585B0A8
:100B50000121082000F0ACFC0121480500F0B5FCA3
:100B6000C020ADF8100003208DF812001C208DF875
:100B7000130004A9BD4800F0E5F90020ADF8040019
:100B80004BF6FF70ADF80600D020ADF808004FF42A
:100B90008060ADF80A000001ADF80C00B448009088
:100BA0000121B44801F003FF6946B24801F081FE1B
:100BB0000121B04801F037FF05B000BD08B50020A5
:100BC000009000BF0121AB4801F015FF1421A94896
:100BD00001F070FF00900022D021A64801F061FFD3
:100BE0001421A44801F066FF10F0020FEAD0A249D8
:100BF000A04802F020F801219E4801F008FF08BD3E
:100C000070B504460D4600BF4FF40031994801F01D
:100C1000F5FF0028F8D10121964801F0ECFE00BF55
:100C20009649944801F0C8FF0028F9D00022D0214D
:100C3000904801F036FF00BF91498E4801F0BCFF9B
:100C40000028F9D021468B4801F025FF00BF8C49D0
:100C5000891C884801F0B0FF0028F8D02946854853
:100C600001F019FF00BF8649891C824801F0A4FFEA
:100C70000028F8D001217F4801F0C9FEFFF79EFF50
:100C800070BD10B56420FFF7FBFD00216B20FFF75E
:100C9000B7FF0A20FFF7F4FD07211920FFF7B0FF87
:100CA0000A20FFF7EDFD06211A20FFF7A9FF0A2011
:100CB000FFF7E6FD18211B20FFF7A2FF0A20FFF730
:100CC000DFFD01211C20FFF79BFF4FF47A70FFF737
:100CD000D7FD10BD70B5044600BF4FF40031654824
:100CE00001F08CFF0028F8D10121624801F083FE59
:100CF00000BF62495F4801F05FFF0028F9D0002281
:100D0000D0215C4801F0CDFE00BF5D49594801F09B
:100D100053FF0028F9D00121564801F048FE214632
:100D2000544801F0B8FE00BF5549891C514801F0F4
:100D300043FF0028F8D001214E4801F05CFE00BFBF
:100D40004E494C4801F038FF0028F9D00122D0214B
:100D5000484801F0A6FE00BF4849491C454801F03B
:100D60002BFF0028F8D00021424801F05CFE012151
:100D7000404801F04CFE41493F313E4801F01CFF24
:100D800018B13C4801F089FE05460121394801F0BF
:100D90004AFE284670BD70B505460E46144600BF93
:100DA0004FF40031334801F029FF0028F8D1012128
:100DB000304801F020FE00BF30492E4801F0FCFE13
:100DC0000028F9D00022D0212A4801F06AFE00BF95
:100DD0002B49284801F0F0FE0028F9D001212548D0
:100DE00001F0E5FD3146234801F055FE00BF2449DE
:100DF000891C204801F0E0FE0028F8D001211D48A0
:100E000001F0F9FD00BF1D491A4801F0D5FE002888
:100E1000F9D00122D021174801F043FE00BF174945
:100E2000491C144801F0C8FE0028F8D016E0012C37
:100E300007D100210F4801F0F6FD01210D4801F016
:100E4000E6FD0E493F310B4801F0B6FE30B10948CE
:100E500001F023FE28706D1C601EC4B2002CE6D188
:100E60000121044801F0DFFD70BD0000000C0140CD
:100E7000801A060000540040000400100100030026
:100E80008200070010B50446CA48844208D10121F7
:100E9000042000F027FB0021042000F023FB46E0A3
:100EA000C548844208D10121082000F01BFB002125
:100EB000082000F017FB3AE0C048844208D1012125
:100EC000102000F00FFB0021102000F00BFB2EE0A3
:100ED000BB48844208D10121202000F003FB0021FF
:100EE000202000F0FFFA22E0B648844208D1012118
:100EF000402000F0F7FA0021402000F0F3FA16E05D
:100F0000B148844208D10121802000F0EBFA002191
:100F1000802000F0E7FA0AE0AC48844207D10121C2
:100F2000801500F0DFFA0021A01500F0DBFA10BDFB
:100F300010B50121084600F0D5FA0021012000F08B
:100F4000D1FA10BD2DE9F04102460025002600200F
:100F500000230024002791F803C00CF00F0591F83E
:100F600003C01CF0100F03D091F802C04CEA050535
:100F700091F800C0BCF1000F31D0146800202BE0C4
:100F80004FF0010C0CFA00F3B1F800C00CEA0306B4
:100F90009E4220D183004FF00F0C0CFA03F7BC43A4
:100FA00005FA03FC4CEA040491F803C0BCF1280FD5
:100FB00006D14FF0010C0CFA00FCC2F814C00AE094
:100FC00091F803C0BCF1480F05D14FF0010C0CFAA9
:100FD00000FCC2F810C0401C0828D1D31460B1F83E
:100FE00000C0BCF1FF0F34DD546800202EE000F19A
:100FF000080C4FF0010808FA0CF3B1F800C00CEA35
:1010000003069E4221D183004FF00F0C0CFA03F728
:10101000BC4305FA03FC4CEA040491F803C0BCF19C
:10102000280F05D100F1080C08FA0CF8C2F814805A
:1010300091F803C0BCF1480F07D100F1080C4FF044
:10104000010808FA0CF8C2F81080401C0828CED31A
:101050005460BDE8F0814FF6FF710180022181707C
:101060000421C17070470246002093680B4201D0F2
:10107000012000E0002070470146886880B2704778
:1010800002460020D3680B4201D0012000E000207E
:1010900070470146C86880B270470161704741617E
:1010A00070470AB1016100E041617047C16070475B
:1010B0004FF480320A438261816182618269826970
:1010C000704702460020424B18684FF68073184064
:1010D00040EA021008433E4B186070473D49C86122
:1010E0007047F0B50A46002300240021002500F0D7
:1010F0000046B6F1004F02D1354EF16901E0344EA1
:101100007168C0F3034583B200F44016B6F5401F82
:1011100008D121F070612E4E766826F070662C4F53
:101120007E6012E000F48016B6F5801F06D103261B
:1011300006FA05F4A14341F0706106E0460D360160
:1011400003FA06F6B14341F0706122B1460D360153
:1011500003FA06F6314300F00046B6F1004F02D123
:101160001B4EF16101E01A4E7160F0BD30B50022F6
:101170008B071C0F0F2303FA04F2154B08338C1056
:1011800053F824309343124C08348D1044F8253022
:1011900023468C1053F824308C07240F00FA04F4F3
:1011A00023430B4C08348D1044F8253030BD0A49D8
:1011B0000860704700080140000C01400010014029
:1011C0000014014000180140001C014000200140B3
:1011D0000000014000002042DC002042DD480068A1
:1011E00040F00100DB49086008464068DA490840E1
:1011F000D849486008460068D8490840D549086081
:101200000846006820F4802008600846406820F402
:10121000FE0048604FF41F0088607047CD490968A0
:1012200021F48031CB4A11601146096821F48021F4
:101230001160B0F5803F03D0B0F5802F0ED106E0ED
:10124000C449096841F48031C24A116007E0C149CC
:10125000096841F4A021BF4A116000E000BF00BF4F
:10126000704710B501460022002300204A11012AD0
:1012700002D1B84C236806E0022A02D1B54C236A99
:1012800001E0B44C636A01F01F02012494401C4247
:1012900001D0012000E0002010BD38B500200090F2
:1012A0000024002500BF3120FFF7DBFF0546009832
:1012B000401C00900098B0F5A06F01D0002DF2D036
:1012C0003120FFF7CEFF08B1012400E000242046C2
:1012D00038BD014600209F4A106820F0F80040EA1F
:1012E000C100106070479E490860704702460020A8
:1012F000984B586820F47C1042EA01031843954B40
:101300005860704796490866704701460020914A28
:10131000506820F003000843506070478D484068D3
:1013200000F00C007047014600208A4A506820F007
:10133000F00008435060704701460020854A50681D
:1013400020F4E06008435060704701460020814A65
:10135000506820F4605040EAC1005060704729B1E5
:101360007C4A527A02437B4B5A7204E0794A527AA1
:101370008243784B5A7270477A4908607047014639
:101380000020744A506820F4404008435060704781
:101390000021754A11706F4A82F82010012802D08E
:1013A000042808D103E001216F4A117004E00521EF
:1013B0006D4A117000E000BF00BF70476B490860C4
:1013C00070476449096A0143624A1162704767497C
:1013D00044390860704730B5002100220024002302
:1013E0005C4D6D6805F00C0121B1042905D0082978
:1013F00023D105E05E4D056022E05D4D05601FE0F4
:10140000544D6D6805F47012524D6D6805F48034CA
:10141000022505EB92421CB9564D554305600BE081
:101420004C4D6D6815F4003F03D0524D5543056097
:1014300002E04F4D5543056002E04D4D056000BF91
:1014400000BF444D6D6805F0F00109094A4D6B5C21
:101450000568DD4045603F4D6D6805F4E061090AAF
:10146000454D6B5C4568DD4085603A4D6D6805F41F
:101470006051C90A404D6B5C4568DD40C560354D23
:101480006D6805F44041890B3C4D6B5CC568B5FB4C
:10149000F3F5056130BD29B12E4A526902432D4B47
:1014A0005A6104E02B4A526982432A4B5A617047C1
:1014B00029B1284A92690243264B9A6104E0254AE1
:1014C00092698243234B9A61704729B1214AD269BC
:1014D0000243204BDA6104E01E4AD26982431D4B6D
:1014E000DA61704729B11B4AD2680243194BDA60AE
:1014F00004E0184AD2688243164BDA60704729B17B
:10150000144A12690243134B1A6104E0114A12692A
:101510008243104B1A617047144940390860704784
:101520000F49C86470470B49C87170470948406A41
:1015300040F0807007494862704701460020054A24
:1015400092680A4201D0012000E000207047014962
:1015500088727047001002400000FFF8FFFFF6FE9F
:1015600000004242D8004242201002408004424221
:1015700000127A0000093D00680000207800002079
:1015800031490143314A1160704770B50021002391
:101590000F22C4780CB32D4C246804F4E064C4F525
:1015A000E064210AC1F10403CA40447804FA03F15B
:1015B0008478144021430901254C0678A15504780C
:1015C00004F01F050124AC4005786D114FF0E026B2
:1015D00006EB8505C5F8004109E0047804F01F0515
:1015E0000124AC401B4D0678761145F8264070BDAD
:1015F000194A0A400243154B1B1F1A60704739B144
:10160000124A121D12680243104B1B1D1A6006E09D
:101610000E4A121D126882430C4B1B1D1A60704744
:10162000042808D14FF0E021096941F004014FF08E
:10163000E022116107E04FF0E021096921F0040187
:101640004FF0E022116170470000FA050CED00E058
:1016500000E400E080E100E080FFFF1F10B50446D9
:10166000FE48844208D10121C014FFF73BFF00214E
:10167000E014FFF737FFC4E0B4F1804F08D1012137
:101680000846FFF73CFF00210120FFF738FFB8E0D4
:10169000F348844208D101210220FFF730FF0021E6
:1016A0000220FFF72CFFACE0EE48844208D1012174
:1016B0000420FFF724FF00210420FFF720FFA0E013
:1016C000E948844208D101210820FFF718FF0021D2
:1016D0000820FFF714FF94E0E448844208D1012178
:1016E0001020FFF70CFF00211020FFF708FF88E013
:1016F000DF48844208D101212020FFF700FF0021AC
:101700002020FFF7FCFE7CE0DA48844208D101216A
:101710004014FFF7E7FE00216014FFF7E3FE70E0DE
:10172000D548844209D10121C804FFF7DBFE00211E
:101730004FF40020FFF7D6FE63E0D048844209D181
:1017400001210805FFF7CEFE00214FF48010FFF7BE
:10175000C9FE56E0CA48844209D101214805FFF775
:10176000C1FE00214FF40010FFF7BCFE49E0C54860
:10177000844208D101214020FFF7C1FE0021402012
:10178000FFF7BDFE3DE0C048844208D10121802022
:10179000FFF7B5FE00218020FFF7B1FE31E0BB4826
:1017A000844208D101218015FFF7A9FE0021A01570
:1017B000FFF7A5FE25E0B648844209D101210804BF
:1017C000FFF790FE00214FF48030FFF78BFE18E00A
:1017D000B048844209D101214804FFF783FE00216B
:1017E0004FF40030FFF77EFE0BE0AB48844208D197
:1017F00001218804FFF776FE00214FF48020FFF7D7
:1018000071FE10BD00220288944B98420ED0994B75
:1018100098420BD0B0F1804F08D0914B984205D040
:10182000904B984202D0904B984204D14FF68F7360
:101830001A404B881A438D4B984207D08C4B9842E4
:1018400004D04FF6FF431A40CB881A4302808B889E
:1018500083850B880385814B98420BD0854B98423A
:1018600008D08B4B984205D08A4B984202D08A4BC5
:10187000984201D10B7A038601238382704770B5A9
:10188000002400220023058C4FF6FE7635400584A7
:10189000028C8388048B4FF68F752C40B51E2C402C
:1018A0000D882C43751E2A400D892A434D882A43F2
:1018B0006A4DA8420BD06F4DA84208D0744DA84283
:1018C00005D0744DA84202D0734DA84213D14FF6F3
:1018D000F7752A404D892A434FF6FB752A408D88BB
:1018E0002A434FF6FF652B404FF6FF552B408D895D
:1018F0002B43CD892B4383800483CD888586028446
:1019000070BD70B5002400220023058C4FF6EF76E1
:1019100035400584028C8388048B48F6FF752C4083
:101920004FF6FF452C400D884FF6FF7606EA052559
:101930002C434FF6DF752A400D8906EA05152A4328
:101940004D8806EA05152A43444DA84202D0494D68
:10195000A8421DD14FF67F752A404D894FF6FF767C
:1019600006EA05152A434FF6BF752A408D8806EA18
:1019700005152A434FF6FF352B404FF2FF752B40DC
:101980008D8906EA85052B43CD8906EA85052B431B
:1019900083800483CD880587028470BD70B50024E0
:1019A00000220023058C4FF6FF6635400584028C2B
:1019B0008388848B4FF68F752C404FF6FC752C4036
:1019C0000D882C434FF6FF552A400D894FF6FF76C0
:1019D00006EA05252A434D8806EA05252A431F4DB8
:1019E000A84202D0234DA8421DD14FF2FF752A40D4
:1019F0004D894FF6FF7606EA05252A434FF6FF3557
:101A00002A408D8806EA05252A434EF6FF752B40AD
:101A10004DF6FF752B408D8906EA05152B43CD89C0
:101A200006EA05152B4383808483CD88858702844D
:101A300070BD70B5002200230024058C4EF6FF76A1
:101A400035400584038C8488828B48F6FF752A40D4
:101A50004FF6FF452A400D8820E00000002C014091
:101A60000004004000080040000C0040001000404E
:101A70000014004000340140004C0140005001407F
:101A80000054014000180040001C004000200040AD
:101A90000040014000440140004801404FF6FF76FD
:101AA00006EA05252A434DF6FF752B400D8906EA07
:101AB00005352B434D8806EA05352B43FA4DA842E0
:101AC00002D0FA4DA84208D14BF6FF752C408D8903
:101AD0004FF6FF7606EA85152C4384808283CD88F5
:101AE000A0F84050038470BD828B4FF2FF331A4040
:101AF0008283828B4FF6FF7303EA01231A438283AA
:101B00007047F0B50C461546002200210026078CD0
:101B10004EF6FF7C07EA0C070784828B018C4FF698
:101B2000FF7707EA043640F6FF473A404FF6FF7763
:101B300007EA05273A434FF6FF7707EA03373A43A8
:101B4000D94FB8420ED0D94FB8420BD0B0F1804F28
:101B500008D0D74FB84205D0D64FB84202D0D64FA2
:101B6000B84206D14DF6FF77394046F480573943E5
:101B700005E047F6FF57394044F4805739438283E4
:101B80000184F0BD828B4FF6F3731A408283828BFF
:101B90000A4382837047F0B50C46154600220021A7
:101BA0000026078C4FF6FF6C07EA0C070784828B30
:101BB000018C4FF6FF7707EA04264FF60C773A4080
:101BC0004FF6FF7707EA03172F433A43B64FB84261
:101BD0000ED0B64FB8420BD0B0F1804F08D0B44F02
:101BE000B84205D0B34FB84202D0B34FB84206D185
:101BF0004FF6FF57394046F48077394305E04FF2FE
:101C0000FF57394044F48077394382830184F0BD23
:101C1000028B4FF2FF331A400283028B4FF6FF73A1
:101C200003EA01231A4302837047F0B50C461546B8
:101C3000002200210026078C4FF6EF7C07EA0C07F4
:101C40000784028B018C4FF6FF7707EA041640F6F3
:101C5000FF473A404FF6FF7707EA03373A434FF61C
:101C6000FF7707EA05273A438F4FB8420ED08F4FD0
:101C7000B8420BD0B0F1804F08D08D4FB84205D09C
:101C80008C4FB84202D08C4FB84206D14FF6DF7766
:101C9000394046F01007394305E04FF65F77394089
:101CA00044F01007394302830184F0BD028B4FF6E4
:101CB000F3731A400283028B0A4302837047F0B524
:101CC0000C46154600220021068C4FF6FE773E405A
:101CD0000684028B018C4FF60C7632407E1C06EA9D
:101CE00003162E433243704EB0420ED06F4EB042B8
:101CF0000BD0B0F1804F08D06D4EB04205D06D4E84
:101D0000B04202D06C4EB04206D14FF6FD76314063
:101D100044F00106314305E04FF6F576314044F0DA
:101D20000106314302830184F0BD70B505460C46BF
:101D30005D4885420ED05D4885420BD0B5F1804F9D
:101D400008D05B48854205D05A48854202D05A489F
:101D5000854200D100E000BF208850B92389A288C5
:101D600061882846FFF7ABFFE1882846FFF79EFF12
:101D700025E0208804280AD12389A2886188284682
:101D8000FFF753FFE1882846FFF742FF17E020885E
:101D900008280AD12389A28861882846FFF7FBFE1C
:101DA000E1882846FFF7EEFE09E02389A2886188D2
:101DB0002846FFF7A6FEE1882846FFF795FE70BD8E
:101DC0002DE9F04105460C4600260127608808B938
:101DD000022600E00026A088012801D1022700E0A9
:101DE00001272088A0B92389A28861882846FFF7A7
:101DF00066FFE1882846FFF759FF23893A463146B6
:101E00002846FFF712FFE1882846FFF701FF13E09D
:101E10002389A28861882846FFF707FFE1882846C2
:101E2000FFF7F6FE23893A4631462846FFF747FF7B
:101E3000E1882846FFF73AFFBDE8F0810A884B8821
:101E40001A438B881A43CB881A430B891A434B8950
:101E50001A438B891A43A0F8442070474FF6FF714C
:101E6000818000210180C180418001727047002182
:101E7000018041808180C180018141818181C18156
:101E80007047002101804180012181800021C180B3
:101E9000018170470021018041808180C1800181E2
:101EA0004181818170470000002C014000340140D5
:101EB0000004004000080040000C004021B10288EE
:101EC00042F00102028004E002884FF6FE731A40DD
:101ED0000280704731B1B0F8442042F40042A0F8CB
:101EE000442005E0B0F84420C2F30E02A0F84420DC
:101EF00070471AB183890B43838102E083898B4346
:101F0000838170478182704741EA0203A0F848301C
:101F100070471AB183890B43838102E083898B4325
:101F20008381704701894FF6F87211400181704733
:101F30000A46002101894FF68F7319401143018130
:101F4000704730B504460D4629462046FFF7F0FF9E
:101F5000208940F00700208130BD2DE9F041044682
:101F60000D4616461F46602D06D13B4601223146DE
:101F70002046FFF75AFE05E03B4601223146204647
:101F8000FFF79DFE29462046FFF7D2FF208940F04B
:101F900007002081BDE8F08130B50C4600210189A1
:101FA000C9B24FF6FF7505EA0325154325432943BA
:101FB000018130BD2DE9F04105460E461746984691
:101FC000002443463A4631462846FFF7E5FF2C8970
:101FD0004FF6F870044044F007044FF68F70044049
:101FE00044F070042C81BDE8F081F0B504460D4644
:101FF00016461F463B46324629462046FFF7CCFF91
:10200000208940F480402081F0BD018582827047A4
:102010000A46002101884FF68F7319401143018051
:102020007047F0B50C4615461E46002100220023DD
:102030000189028B038C4FF6F877394021434FF624
:10204000FC473A4040F201173A434FF6DD773B40F8
:102050004FF6FF7707EA06172F433B4301810283C0
:102060000384F0BD0A460021018B4FF68F7319409F
:102070001143018370470A460021018B48F6FF7324
:1020800019404FF6FF7303EA022319430183704797
:102090000A460021818B4FF68F73194011438183CB
:1020A00070470A460021818B48F6FF7319404FF6AE
:1020B000FF7303EA022319438183704721B1028829
:1020C00042F08002028004E002884FF67F731A40DB
:1020D0000280704721B1828842F00402828004E0CD
:1020E00082884FF6FB731A408280704721B1828844
:1020F00042F00802828004E082884FF6F7731A40AB
:102100008280704721B1828842F00102828004E01F
:1021100082884FF6FE731A40828070470A4600217B
:10212000018B4FF6F77319401143018370470A463C
:102130000021018B4FF2FF7319404FF6FF7303EA42
:1021400002231943018370470A460021818B4FF611
:10215000F77319401143818370470A460021818B30
:102160004FF2FF7319404FF6FF7303EA022319433E
:10217000818370470A460021018B4FF6FB7319409B
:102180001143018370470A460021018B4FF6FF334C
:1021900019404FF6FF7303EA022319430183704786
:1021A0000A460021818B4FF6FB731940114381834E
:1021B00070470A460021818B4FF6FF3319404FF6D6
:1021C000FF7303EA02231943818370470A46002103
:1021D000018B4FF67F7319401143018370470A4604
:1021E0000021018BC1F30E014FF6FF7303EA0223B6
:1021F0001943018370470A460021818B4FF67F7394
:1022000019401143818370470A460021818BC1F335
:102210000E014FF6FF7303EA0223194381837047CF
:102220000A460021018C4FF6FD73194011430184C9
:1022300070470A460021018C4FF6F773194011438D
:10224000018470470A460021018C4FF6DF73194064
:102250004FF6FF7303EA02131943018470470A46DD
:102260000021018C4FF67F7319404FF6FF7303EA8C
:1022700002131943018470470A460021018C4FF66E
:10228000FF5319404FF6FF7303EA022319430184F9
:1022900070470A460021018C4FF2FF7319404FF638
:1022A000FF7303EA02231943018470470A460021A1
:1022B000018C4DF6FF7319404FF6FF7303EA0233AA
:1022C00019430184704730B5002301248C40A3B228
:1022D000048C9C430484048C02FA01F5ADB22C43B7
:1022E000048430BD30B5002304248C40A3B2048C98
:1022F0009C430484048C02FA01F5ADB22C4304849F
:1023000030BD70B503460020002418461830012562
:102310008D40ACB21D8CA5431D8409B1082909D19B
:1023200000EB6100056825F0700505600568154340
:1023300005600EE00D1FC5F34E052844056825F421
:10234000E045056005684FF6FF7606EA022635434C
:10235000056070BD21B1028842F00202028004E0F3
:1023600002884FF6FD731A400280704721B102883F
:1023700042F00402028004E002884FF6FB731A4028
:102380000280704721B1828842F08002828004E09E
:1023900082884FF67F731A408280704702884FF61A
:1023A000F7731A40028002880A43028070478288CD
:1023B0004FF68F731A40828082880A43828070476A
:1023C00002894FF6F8731A40028102890A4302819A
:1023D000704702894FF67F731A40028102890A43CF
:1023E000028170478184704781857047818670477C
:1023F0000187704781877047A0F8401070470288B6
:102400004FF6FF431A40028002880A430280704759
:102410000146888E70470146088F70470146888FB5
:1024200070470146B1F8400070470146888C7047FC
:102430000146088D704702460020138A0B4201D0E6
:10244000012000E000207047CA430282704730B587
:102450000246002000230024158A05EA010395891D
:1024600005EA010413B10CB1012000E0002030BDE9
:10247000CA4302827047000010B50446FB488442FC
:1024800009D101218803FFF72DF800214FF4804086
:10249000FFF728F832E0F648844209D101214804C8
:1024A000FFF72DF800214FF40030FFF728F825E062
:1024B000F048844209D101218804FFF720F8002167
:1024C0004FF48020FFF71BF818E0EB48844209D155
:1024D0000121C804FFF713F800214FF40020FFF793
:1024E0000EF80BE0E548844208D101210805FFF70A
:1024F00006F800214FF48010FFF701F810BD2DE918
:10250000F04786B005460E460024A24600BFA1460D
:102510000027B08900B100BF2F462C8A4CF6FF700F
:102520000440F08804432C82AC894EF6F31004403A
:10253000B08831890843718908430443AC81AC8A6F
:102540004FF6FF400440B0890443AC8201A8FEF777
:1025500042FFC648874202D1DDF810A001E0DDF855
:102560000CA0A88910F4004F08D00AEBCA0000EBB9
:102570000A1031684900B0FBF1F807E00AEBCA0025
:1025800000EB0A1031688900B0FBF1F86420B8FB59
:10259000F0F004012009642101FB1089A88910F4DE
:1025A000004F08D0322000EBC900B0FBF1F000F082
:1025B0000700044308E0322000EB09106421B0FB5F
:1025C000F1F000F00F0004432C8106B0BDE8F08765
:1025D0004FF41651016000218180C18001810C21DE
:1025E000418100218181704710B502460020108A88
:1025F0004FF2FF0318400B884C8823438C882343F9
:10260000CC8823431843108210BD002101804180F3
:102610008180C180704721B1828942F40052828159
:1026200004E082894DF6FF731A4082817047F0B54D
:1026300003460024002600250020A1F510676A3F0C
:1026400000D100BF1846C1F3421401F01F06012754
:1026500007FA06F5012C01D10C3004E0022C01D15F
:10266000103000E014301AB107682F43076002E011
:102670000768AF430760F0BD1AB1838A0B438382BA
:1026800002E0838A8B4383827047028A4FF6F0739D
:102690001A400282028A0A430282704782894FF2FC
:1026A000FF731A40828182890A438281704721B177
:1026B000828942F00202828104E082894FF6FD7332
:1026C0001A4082817047028A4FF6DF731A400282F5
:1026D000028A0A430282704721B1028A42F4804290
:1026E000028204E0028A4BF6FF731A4002827047AE
:1026F000C1F308028280704701468888C0F3080051
:102700007047818941F0010181817047028BD2B20B
:102710000283028B42EA012202837047028B02F499
:102720007F420283028B0A430283704721B1828A6F
:1027300042F02002828204E0828A4FF6DF731A4060
:102740008282704721B1828A42F01002828204E0C4
:10275000828A4FF6EF731A408282704721B1828AD3
:1027600042F00802828204E0828A4FF6F7731A4030
:102770008282704721B1828942F40042828103E063
:102780008289C2F30E028281704721B1828A42F4AB
:102790000062828204E0828A4FF2FF731A408282D2
:1027A0007047828A4FF6FB731A408282828A0A43FC
:1027B0008282704721B1828A42F00202828204E062
:1027C000828A4FF6FD731A408282704702460020CB
:1027D000B1F5007F00D100BF13880B4201D001206A
:1027E00000E00020704701F40072B2F5007F00D1D4
:1027F00000BFCA430280704770B502460024002320
:1028000000250020A1F510666A3E00D100BFC1F38B
:10281000421501F01F03012606FA03F3012D02D130
:102820009689334006E0022D02D1168A334001E03A
:10283000968A33400C12012606FA04F416883440B6
:1028400013B10CB1012000E0002070BD10B50022D2
:102850000023A1F510646A3C00D100BF0A120124D4
:102860009440A3B2DC43048010BD00000038014056
:102870000044004000480040004C00400050004030
:1028800010B50446F748844209D101214805FEF7F6
:1028900036FE00214FF40010FEF731FE08E0012162
:1028A0008805FEF72CFE00214FF48000FEF727FE7E
:1028B00010BD2DE9F04385B004460D460026B14613
:1028C0000427DFF8A483A6884FF6C0700640684648
:1028D000FEF781FDDDF80880E448B8FBF0F01FFA50
:1028E00080F946EA0906A68020884FF6FE71084066
:1028F00020800026DE49286888420CD828684000DD
:10290000B8FBF0F087B2042F00DA04273E4309F148
:102910000100208427E0E888A0F53F41FF3906D177
:10292000286800EB4000B8FBF0F087B209E02868A7
:1029300000EBC00101EB0010B8FBF0F087B247F4E8
:1029400080473805000D01D147F0010747F40040EA
:1029500006434FF4967009FB00F04FF47A7190FB38
:10296000F1F0401C2084A683208840F001002080E4
:1029700026884FF6F5300640A88869890843064343
:102980002680A88929890843208105B0BDE8F08305
:1029900041F288310160002181804BF6FF71C180D6
:1029A0000021018141814FF480418181704721B133
:1029B000028842F00102028004E002884FF6FE73B2
:1029C0001A400280704721B1828842F400628280FE
:1029D00004E082884FF2FF731A408280704721B171
:1029E000828842F48052828004E082884EF6FF732F
:1029F0001A408280704721B1028842F480720280BE
:102A000004E002884FF6FF631A400280704721B14C
:102A1000028842F40072028004E002884FF6FF53FD
:102A20001A400280704721B1028842F4806202801D
:102A300004E002884FF6FF331A40028070470A46CE
:102A4000002181894FF60173194002F0FE031943FA
:102A50008181704721B1828942F00102828104E0C4
:102A600082894FF6FE731A408281704721B1028835
:102A700042F04002028004E002884FF6BF731A4021
:102A8000028070471AB183880B43838002E08388F9
:102A90008B4383807047018270470146088AC0B229
:102AA000704712B141F0010102E04FF6FE73194088
:102AB0000182704708B502460020009000920098FD
:102AC000084400900098008808BD21B1028842F4B3
:102AD0000042028003E00288C2F30E0202807047C7
:102AE000B1F5006F04D1028842F40062028004E074
:102AF00002884FF2FF731A4002807047B1F5005F01
:102B000004D1028842F40052028004E002884DF6AB
:102B1000FF731A400280704721B1028842F480524C
:102B2000028004E002884EF6FF731A40028070476C
:102B3000B1F5006F04D1028842F40062028004E023
:102B400002884FF2FF731A400280704721B1028859
:102B500042F02002028004E002884FF6DF731A4040
:102B6000028070470146088B0012704721B102882D
:102B700042F01002028004E002884FF6EF731A4020
:102B80000280704721B9028842F08002028004E08E
:102B900002884FF67F731A4002807047B1F5804F6C
:102BA00005D0828B4BF6FF731A40828303E0828B41
:102BB00042F480428283704770B5024600240025AB
:102BC00000230020958A138B1B0445EA030626F098
:102BD0007F4404EA01068E4201D1012000E000207A
:102BE00070BD10B501460020002300228B8A0A8B9D
:102BF000120443EA020424F07F4010BD0CB50246E3
:102C0000002000230193009300920B0F019321F009
:102C10007F41019B1BB1009B1433009303E0090C1F
:102C2000009B18330093009B1B680B4201D00120CE
:102C300000E000200CBD002221F07F42D3438382BC
:102C4000704730B5024600200023948801F0E0650B
:102C500004EA154321F07F41948A0C420AD04BB11B
:102C6000012008E00054004000127A0040420F00AA
:102C7000A0860100002030BD002221F07F42D34316
:102C8000838270470948804709480047FEE7FEE70E
:102C9000FEE7FEE7FEE7FEE7FEE7FEE7FEE7FEE70C
:102CA00004480549054A064B70470000150700080F
:102CB00031010008F0000020F0060020F0020020A2
:102CC000F0020020704700000FB4044910B503AAB9
:102CD000029800F04DFA10BC5DF814FB640000206F
:102CE0002DE9F0410E460446002020622046E168AE
:102CF000884730B3252805D0D4E901219047206AC0
:102D0000401CF2E7E168204600278847050018D0FC
:102D1000A5F14100192802D820354FF4006732464A
:102D2000294620462760FDF73DFA40B1012804D02E
:102D3000F61D26F007060836D8E7361DD6E72846E2
:102D4000DAE7206ABDE8F081704770477047704746
:102D500070472DE9FF4F0C461E464FF0FF378BB0F2
:102D6000D2E90001DDF860800A908A46C1F30A5575
:102D700005B93D46002108464FF00000BAF1000FAA
:102D800000F4400005DA00EB80004FF4400101EA56
:102D900050004FEA9059B9F1010F00DDB9460A9889
:102DA00050EA4A000ED044F61050A5F2FF354543D4
:102DB0002F14B8F1000F1ED07542291E1EDDC9F177
:102DC00000021CE0B8F1010F4FF0000001D03021EB
:102DD00003E0F24305E02154401CB042FBDB3046E7
:102DE0000022002121540B99C1F80880C1E900207C
:102DF0000FB0BDE8F08FBD1B6D1CDEE74A4600DA60
:102E0000694206A800F068FA06AB07CB03AB07C31C
:102E100050460A9900F046FB8DE80700A0F50050E7
:102E20001F3800900398002D09DD42F21F014A4629
:102E3000084403A90390684600F0A5FD08E0A0F54A
:102E400000504A461F3803A90390684600F0AFFDC2
:102E50008DE807000004000C03D04FF0FF3041085C
:102E600000E01046B8F1000F03D000220092154692
:102E70001FE0751E06D400F091F902F13002625590
:102E80006D1EF8D5B3460122084302D000227F1CF4
:102E900004E02078302801D100227F1E002A099703
:102EA00087D01DE0112D07DA00F078F93032625535
:102EB0006D1C50EA0102F5D108430FD10021681EB4
:102EC00005E0235C625C6354491C2254401E81422D
:102ED000F7DBAB46A81B401E099001E0009848B103
:102EE000002004F80B000B98099AC0F80880C0E98C
:102EF000002B7DE711264FF000085AE72DE9F04F2F
:102F000088460446D21D22F0070191B0D1E90001A4
:102F1000CDE90A0100F081FE02460B98C00F01D0F6
:102F20002D2007E02068810701D52B2002E0202119
:102F300001EAC000032A099001D0072A05DB0346F5
:102F40004146204600F088F90FE12078800601D53F
:102F5000E06900E00620B8F1650F814606D0B8F1BF
:102F6000660F18D0B8F1670F72D132E00020B9F1C6
:102F7000110F009001DB112301E009F101030AAAFE
:102F800001A90CA8FFF7E5FEDDE90C70002609F1A8
:102F90000105834648E001204B4600904FF0004772
:102FA0000AAA01A90CA8FFF7D4FEDDE90DB00C991F
:102FB0005D46002618B909F1010001EB0005B9EBE7
:102FC000050003D4C0F1FF3609F10105A5EB0900A6
:102FD0002BE0B9F1010F01DA4FF001090020B9F13E
:102FE000110F0090484601DD112300E003460AAAB4
:102FF00001A90CA8FFF7ADFEDDE90C704D460026D7
:103000008346207800070AD4AB4500DA5D4601A864
:10301000012D04DD411911F8011C302907D04F455D
:1030200002DA17F1040F04DA0120824610E06D1E67
:10303000EEE7002F02DCED1B3E4403E0781CA842C3
:1030400000DD0546A7EB060000F1010A4FF000473E
:103050002078000703D4AA4501DB4FF0FF3A002196
:10306000B7F1004F0DF143088DF8431023D0022033
:103070002B23002F01DA7F422D234FF00A0C011E73
:10308000A0F1010000DC4FB197FBFCF10CFB1172C9
:103090000F4602F1300208F8012DF0E7A8F1010017
:1030A00003702188090501D5452100E06521A0F1C3
:1030B000010800F8011C09980FA9A1EB080707F106
:1030C000070700B1012000EB050101EBEA70A169DF
:1030D0003844A1EB0000A0F10100A0612078C006F7
:1030E00002D42046AFF30080099830B1D4E9012121
:1030F0009047206A00F1010020622078C00620D5A8
:103100002046AFF300801CE0002E04DBB34502DD57
:1031100001A8805D00E03020D4E901219047206AB9
:10312000761C401CBAF1010A20620AD100F032F884
:10313000C0680168405CD4E901219047206A401CC6
:103140002062281EA5F10105DEDC07E0D4E901219B
:1031500018F8010B9047206A401C2062381EA7F126
:103160000107F3DC2046AFF30080022011B040E6F7
:10317000074B70B50D467B4400F05BF804462846CB
:1031800000F01CF910B14FF0FF3070BD204670BD4B
:103190004BD9FFFF00487047AC00002030B5B0F1BC
:1031A0000A024FEA900E71F100034EEA817EB0EB05
:1031B0000E0061EB91014FEA101E4EEA017E10EB0A
:1031C0000E0041EB11114FEA102E4EEA016E10EB8A
:1031D0000E0041EB11214FEA104E4EEA014E10EB6A
:1031E0000E0041EB1141401841F100014FEAD000BF
:1031F00040EA41704FEAD10110EB80054FEA8104AB
:1032000044EA907444EB01046D1944EB0404521B2E
:10321000A3414FF0000348BF0A3200D530BD401C27
:1032200041F1000130BD000001694A1C02610878CB
:10323000704700B58FB0CDE90131002105910549F6
:103240007944CDE9031011466846FFF749FD0FB0F8
:1032500000BD0000E5FFFFFF2DE9F0411F460446D9
:1032600003260168072A01F4006004DB08B116A5F3
:1032700005E016A503E008B115A500E015A521F0AD
:1032800010002060A069C01EA0610FB1401EA061A7
:103290002046AFF300804FB1D4E901213846904772
:1032A000206A401C2062C01C206206E0206AFAE707
:1032B000D4E9012115F8010B9047761EF8D220467B
:1032C000AFF30080BDE8F0814E414E006E616E00AC
:1032D000494E4600696E66002DE9F0478146164664
:1032E0008AB035487844D0E9002380680092CDE95F
:1032F0000130314878440C38D0E902230069039248
:103300004FF03702CDE9043041F69B30014491FB88
:10331000F2F0A0F1800502FB10141B3C02D56442C0
:10332000012000E00020DFF890A080460027FA444A
:10333000AAF1C60A0DE0E00709D03246684607EB5D
:1033400047010AEB810100F032FB8DE807006410B1
:103350007F1C002CEFD1184F7F44B43F17E0E807E3
:1033600013D007EB04100DF1180A90E80E00AAE83C
:103370000E00C068F04201D198190890324606A9A3
:1033800003A800F014FB03AB07C36D10641C002DF1
:10339000E5D132466946B8F1000F03A802D000F02B
:1033A000F2FA01E000F003FBC9E90001C9F80820C6
:1033B0000AB0BDE8F087000080140000007B00F038
:1033C00080007047004870478C0000207546FFF76A
:1033D000F9FFAE4605006946534620F007008546D2
:1033E00018B020B5FFF75CFCBDE820404FF00006A8
:1033F0004FF000074FF000084FF0000B21F00701DD
:10340000AC46ACE8C009ACE8C009ACE8C009ACE81F
:10341000C0098D4670470446AFF300802046FCF794
:10342000DBFE00004FF0013C50F8042B51F8043B48
:103430009A4221D1A2EB0C03934313EACC1317D188
:1034400050F8042B51F8043B9A4215D1A2EB0C031F
:10345000934313EACC130BD150F8042B51F8043BDF
:103460009A4209D1A2EB0C03934313EACC13DBD0AD
:103470004FF00000704700BFD01A01BAB1FA81F1D5
:1034800001F0180122FA01F0CB40C1F12001DBB2BA
:10349000C0B2C01A2CFA01F3D11A914311EAC31138
:1034A000E6D170475FEA400C08BF91F0000F4FEA89
:1034B0008C234FEAC12243EA51514FEA1C5018BFF6
:1034C00000F5F0404FEA300018BF41F000415FEADC
:1034D0006C5C00F02980BCF1FF3F08BF40F08040E9
:1034E0007047130C06BF12044FF0100C4FF0000C85
:1034F000130E04BF12020CF1080C130F04BF1201CB
:103500000CF1040C930F04BF92000CF1020CD30FCA
:1035100004BF52000CF1010C11464FF00002A0F163
:103520001F00A0EB0C00704711F0004F08BF704760
:1035300031F000413FF4D5AF0B0C06BF09044FF04A
:10354000100C4FF0000C0B0E04BF09020CF1080C1C
:103550000B0F04BF09010CF1040C8B0F04BF890091
:103560000CF1020CCB0F04BF49000CF1010CCCF1A3
:103570002003A0EB0C0022FA03F302FA0CF241EA5A
:10358000030100F10100704720F07F4C80EA030046
:1035900023F07F47ACEB070303F57C5300F00040BA
:1035A00003F1FF032DE980494FEA154B09B44FEAB7
:1035B000144325EA0B4E24EA03480FF2042606EBD7
:1035C000132749083E785FEA320203FB0667C7F516
:1035D000000707FB06F64FEA54374FEAD64606F1D6
:1035E000020607FB066CCCF1005C4FEA1C472CEA94
:1035F000074C07FB06F40CFB06F504EB15464FEAF7
:10360000961634BF00204FF000404FEAD13706FB3A
:1036100007FC4FEA1C4C0CFB0BF7D21B03FB0CF70F
:1036200061EB07010CFB0EF7B0EB074072EB1742A2
:103630000CFB08F734BFA2EB0742B2EB074261EB89
:1036400017414FEA0C444FEA910706FB07FC4FEA8B
:103650001C4C0CFB0BF7B0EBC74072EB573203FB73
:103660000CF734BFA2EBC742B2EBC74261EB573154
:103670000CFB0EF7B0EBC70072EB57720CFB08F7B0
:1036800034BFA2EBC702B2EBC70261EB5771039FD5
:103690004FEA816141EA921104EBCC044FEAD13741
:1036A0004FEA826206FB07FC42EA90124FEA806012
:1036B0004FEA1C4C0CFB0BF7D21B03FB0CF761EB26
:1036C00007010CFB0EF7B0EB074072EB17420CFB47
:1036D00008F734BFA2EB0742B2EB074261EB174198
:1036E0004FEA8C554FEA910704EB9C2406FB07FC3C
:1036F0004FEA1C4C0CFB0BF7B0EBC74072EB573298
:1037000003FB0CF734BFA2EBC742B2EBC74261EB3D
:1037100057310CFB0EF7B0EBC70072EB57720CFB86
:1037200008F734BFA2EBC702B2EBC70261EB5771D7
:1037300015EB4C254FEA816141EA92114FEA826212
:103740004FEAD13742EA901206FB07FC44F100042D
:103750004FEA80604FEA1C4C0CFB0BF7D21B03FBBB
:103760000CF761EB07010CFB0EF7B0EB074072EBB7
:1037700017420CFB08F734BFA2EB0742B2EB07423B
:1037800061EB174115EB1C154FEA813141EA92417B
:103790004FEA823242EA90424FEA80304FEA0C769A
:1037A00044F1000448EA03434EEA0B484FF0000E90
:1037B000B2EB080C71EB030724BF624639464EEBAF
:1037C0000E0E4FF0000B0018524149414BEB0B0B12
:1037D000B2EB080C71EB03077BF1000B24BF6246D0
:1037E00039464EEB0E0E4FF0000B00185241494186
:1037F0004BEB0B0BB2EB080C71EB03077BF1000BEF
:1038000024BF624639464EEB0E0E51EA020718BF3E
:1038100046F0010616EB0E7655F1000254F1000158
:1038200003D5BDE88901BDE80088BDE88901BDE890
:103830000048B619524141EB0101A3F10103704761
:1038400080807F7E7D7C7B7A7978777676757473DD
:10385000727171706F6E6E6D6C6C6B6A6A6968689C
:10386000676666656464636362616160605F5F5E32
:103870005E5D5D5C5C5B5B5A5A59595858575756A8
:10388000565555555454535352525251515050500D
:103890004F4F4F4E4E4D4D4D4C4C4C4B4B4B4A4A5F
:1038A0004A494949484848474747474646464545A3
:1038B00045444444444343434342424242414141DC
:1038C000002B26D4770021D01CB54FEA370703B46C
:1038D0004FF010004FF010014FF000000FBCBDE89A
:1038E00010400BF1010BBBF1010F08BF5FEA170796
:1038F00022BF12F1010211F101014FF0004143F129
:10390000000300F0004043EA00007047F9D3570875
:10391000DAE746EA064613F1400F4FEA16461FDD86
:1039200013F1200FDFBF16430A46002120335B420C
:10393000C8D0C3F1200746EA064602FA07F74FEA65
:10394000164646EA0706C3F1200722FA03F201FAF7
:1039500007F721FA03F14FF0000342EA0702B1E74B
:1039600046EA020646EA06464FEA164646EA0106D7
:10397000BCBF46EA0646360C4FF000034FF000028B
:103980004FF000019EE72DE9C048934630B491E81E
:10399000380007C831EA400C48BF34EA430C03D56D
:1039A000FFF7F2FDFFF78CFFF0BCBDE800882DE9C2
:1039B000C048934630B491E8380007C810F0804FF3
:1039C00008BF13F0804F03D100F005F8FFF778FF30
:1039D000F0BCBDE8008820F07F4780EA030023F0B8
:1039E0007F4C07EB0C03A3F57C5300F00040A3F1E0
:1039F000FE0392F0000F00F0B38095F0000F00F08E
:103A000077802DE901494FEA11404FEA144621EA37
:103A1000004800FB06FC24EA064708FB06F607FB05
:103A200008F800FB07F718EB06484CEB164C4FEA7A
:103A3000124B18EB07484FEA15464CEB174022EAA9
:103A40000B4E0BFB06FC25EA06470EFB06F607FBB2
:103A50000EFE0BFB07F71EEB064E4CEB164C4FF021
:103A600000061EEB074E4CEB174B18EB0B0840F112
:103A7000000018EB0E0B58EB000840F100008F1A05
:103A80004FF000013CBFC943661B14BFB5EB040CEB
:103A900000213CBFC943F61B4FEA17444EEA8E0E85
:103AA00027EA04454FEA1C4704FB07622CEA074C4F
:103AB00005FB07F70CFB05F604FB0CFC16EB0746B1
:103AC00042EB174216EB0C4642EB1C421BEB060680
:103AD00058EB0202414146EA9E0601D5BDE8018944
:103AE000B619524141EB0101A3F10103BDE801897F
:103AF0004FEA14454FEA114724EA054621EA074CEC
:103B000005FB07F406FB07F70CFB06F105FB0CFCB5
:103B100011EB074144EB17444FEA124711EB0C41FC
:103B200044EB1C4422EA074C05FB07F206FB07F7AF
:103B30000CFB06F605FB0CFC16EB074642EB1742A6
:103B400016EB0C4642EB1C456A1854F1000148BFC5
:103B50007047B619524141EB0101A3F101037047CF
:103B600095F0000F37D04FEA11424FEA144721EA8F
:103B7000024624EA074C02FB07F106FB07F70CFBA1
:103B800006F402FB0CFC14EB074441EB17414FEA2F
:103B9000154714EB0C4441EB1C4125EA074C02FB92
:103BA00007F506FB07F70CFB06F602FB0CFC16EB11
:103BB000074645EB174516EB0C4645EB1C42121920
:103BC00051F1000148BF7047B619524141EB010164
:103BD000A3F1010370474FEA14454FEA114724EA65
:103BE000054621EA074C05FB07F106FB07F70CFB2E
:103BF00006F24FF0000605FB0CFC12EB074241EB0E
:103C0000174112EB0C4251EB1C4148BF7047921810
:103C100041EB0101A3F101037047490050EAC120C3
:103C200018BF04204A0D18BF40F0010040F2FF7297
:103C3000B2EB515F08BF40F00200012808BF052029
:103C40007047000010B500290AD00878002807D076
:103C500005487844FFF7E6FB002801D0002010BD9E
:103C60000248784410BD00004E0B0000460B0000D7
:103C700021F00042A2F16052B2F5801F01F0004332
:103C800028BFD2F17F6C0BD95FEA001C43EAC20265
:103C900042EB507018BF704728BF20F001007047FA
:103CA000B2F5801FBCBF184670474FEA410C1CF5A7
:103CB000001F02D2084600F092BC70B500F00CFA6A
:103CC00000000089FFF7F6BF4FF00040A0F580002C
:103CD000704700002DE9C04130B4DFF8A0C23CEAD3
:103CE000111418BF3CEA131400F0EC8081EA0305BC
:103CF0001CEA111444EAD57418BF1CEA131500F02D
:103D0000C780A4EB05044FF0004545EAC12145EA10
:103D1000C32341EA505143EA525304F17F7499425C
:103D200004F500344FEAC0204FEAC22208BF904297
:103D300000F09C804FEA13650FF24016765D4FEA63
:103D4000134506FB05F7C7F1807706FB07F74FEA37
:103D5000D737A7FB03687642C8F58038A7FB06CEA5
:103D600038BFA8F1010807FB08E64FF0000EA6FBDC
:103D7000028CE6FB03CEDCF1000CCEF1004E38BF26
:103D8000AEF1010EA6FB0C584FF000074FF00005F6
:103D9000E6FB0E87A1FB08C6A0FB07CE16EB0E06BE
:103DA00045F10005E1FB076515F1E04E7EBFA4F586
:103DB00080345FEA46066D4116F1800745F1000543
:103DC0004FEA17274FEA066647EA0567A6F1DE467F
:103DD000B6F1805F4FEA15251FD9384624F0010C53
:103DE00005EBC471BCF1FE6F01EB0C1102D8F0BC05
:103DF000BDE8008124425CBF01F5801E9EEAC47FBD
:103E000002D4F0BCBDE80081244238D4F0BCA1F15A
:103E1000C041BDE8004100F0ADB94FEAD22242EA0C
:103E200043524FEAD323A7FB02864FEAD02040EA51
:103E3000415007FB03661EEA0E0F4FEAD12105FB36
:103E4000026658BFA6EB0056B6EB00564FEA520E7C
:103E50004EEAC37E18EB0E0E56EB530EBDD518EB93
:103E600002085E417F1C55F10005B6E74FF480154E
:103E70004FF000074FF000064FF00008ADE7F0BC30
:103E80004FF0000001F1C04101F00041BDE80081A8
:103E900011EA0C1F0CEA131500D00CE013EA0C1FFA
:103EA00000F025804FF00000F0BC81EA030101F032
:103EB0000041BDE80081F0BCBDE8004181EA03019A
:103EC00000F058B9F0BCBDE8004170B500F004F94D
:103ED000097EFC3E00F007B881EA03014FF00000C4
:103EE00001F00041704781EA030100F043B9F0BCE2
:103EF000BDE800414FF0000021497047FFFDFBF98C
:103F0000F7F5F4F2F0EEEDEBE9E8E6E4E3E1E0DE0C
:103F1000DDDBDAD8D7D5D4D3D1D0CFCDCCCBCAC87E
:103F2000C7C6C5C4C2C1C0BFBEBDBCBBBAB9B8B7A5
:103F3000B6B5B4B3B2B1B0AFAEADACABAAA9A8A898
:103F4000A7A6A5A4A3A3A2A1A09F9F9E9D9C9C9B66
:103F50009A99999897979695959493939291919011
:103F60008F8F8E8E8D8C8C8B8B8A898988888787A2
:103F70008685858484838382828181800000FF0717
:103F80000000F87FDFF848C170B51CEA111E1EBFA3
:103F90001CEA13159EEA0C0F95EA0C0F00F06F80D7
:103FA00081EA030423EA4C134EEAD47E21EA4C1141
:103FB00041F4801143F48013AE44A1FB024CA0FBFA
:103FC0000365AEF17F7E361955EB0C05A1FB034C62
:103FD0004CF10003A0FB021C16EB0C06654153F1EB
:103FE0000003094218BF46F0010613F4007F0BD10D
:103FF0004FEA03314FEA0530340341EA155140EAF4
:1040000016506FF003020AE04FEAC3214FEAC520C1
:10401000F40241EA555140EA56506FF0020202EBB9
:104020002E4201EB025585EACE710AD05FEA440CBC
:1040300018BF24F0004450F1000041F1000120EAD3
:10404000D47040F2FE7C624500D270BDA84214BF1D
:104050004FF080444FF04044002E08BF0024BEF1D2
:10406000806FA8BFA1F1C041BDE8704080F282809E
:104070004FF0000001F1C04101F0004170479EEA9D
:104080000C0F0CEA131518BF95EA0C0F06D04FF071
:10409000000081EA030E0EF0004170BD00F01CF834
:1040A0008900013E00F007B800F009B84FEA430C60
:1040B0005FEA5C5C08D081EA030100F05BB84FEA7C
:1040C000410C5FEA5C5CF6D14FF00000014970479B
:1040D0000000FF070000F87F0EF1020E2EF0030E25
:1040E0005EF8046B364205D4012A43EB030515F54F
:1040F000001F12D8012841EB010C1CF5001F0CD841
:104100000ED14FEAD17C15F5001F0CEB4C0C0CF1D5
:10411000020C08BF4CEBD37C04E04FF0080C01E02C
:104120004FEAD37C0CEB4C0526FA05F606F00706A1
:10413000B6F1040C06D20EEB860CBDE870404CF0D4
:10414000010C6047DFE80CF0090B02024FF0004160
:104150004FF00000A1F5002170BD1946104601285E
:1041600051EB010418BFD4F5001484BF002001F006
:10417000004170BD0808A0F500114FEA31017047F9
:1041800043004FEAD30C4FEA3C0C43401FBF4007AB
:104190000CF1605113F0FE4F70471CF0006F03D11B
:1041A00000200CF0004170470CF0004343EA5070CF
:1041B00010B540EACC0000F0CCF900BF000000923E
:1041C0004FEA0001FFF7D6BF4FF000414FF000006B
:1041D000A1F500217047000090EA010F48BF81F06F
:1041E000004100F11282421A3CBF801A89184FEA3E
:1041F000D0524FF07F4C1CEA410FA2EBD15318BFB5
:104200009CEA026F00F03B804FF0004C4CEA00202B
:104210004CEA012121FA03FC10EB0C0C1ED202F136
:10422000FF325FEA1C2040EBC25038BF70471CF0E1
:104230007F0F4FEA400C18BFBCF17F4F38BF70476B
:10424000C3F12003994008BF20F00100BCF17F4F6B
:1042500038BF7047A0F1C04000F0C1B94FEA3C0040
:10426000000A40EBC25028BF1CF0FF0F4FEA400C81
:10427000E6D018BFBCF17F4F38BF7047EAE79CEA31
:10428000026F05D010EA5C0F08BF00F000407047D5
:1042900010B500F05EF900BF64FBBE3E4FF47F0C2A
:1042A0001CEAD0121EBF1CEAD11392EA0C0F93EA4B
:1042B0000C0F00F0858090EA010F48BF42F4807235
:1042C00040F4000C41F400002CF07F4120F07F40CE
:1042D00000B58142A2EB03020FF2081CACEB504E7A
:1042E000C0F100009EF800E04FEA4E0E00FB0EFC0D
:1042F00038BF49004FEA2C1C02F5FA020CFB0EF302
:104300004FEACE1E4FEA112C4FEAC1210EEB635E3D
:1043100042EB22420EFB0CFC4FEA1C5300FB031144
:104320004FEA112C4FEA01310EFB0CFC4FEADC4C3A
:1043300000FB0C11C14228BF09184CEB03335DF898
:1043400004EB10EB410143EBC250B2F57C0F38BFD8
:10435000704729D512F0F00F1CBF00F1C04000F0EB
:1043600000407047008182838485868788898B8C92
:104370008D8E8F919293959697999A9C9D9FA0A2CE
:10438000A3A5A7A8AAACAEB0B2B3B5B7B9BCBEC01E
:10439000C2C5C7C9CCCED1D4D7D9DCDFE2E6E9ECBF
:1043A000F0F3F7FAFE0000004FEA400C0CF1807CBD
:1043B000BCF17E4F28BF7047B0F1C04000F00FB98C
:1043C00090EA010F0CEAD11348BF42F480726245B3
:1043D00038BF634507D213F47F0F16D080EA01007F
:1043E00000F00040704710B500F0B3F8097EFC3EC5
:1043F00000F005B880EA010000F00040704780EA54
:10440000010000F0004000F0EAB812F47F0F04BF92
:104410000248704780EA010000F0E1B80000C07F68
:1044200010F0004148BF4042B0FA80F310FA03F2A6
:10443000C3F19D030BD051EAC35101EB1220530687
:1044400038BF704700F1010008BF20F0010070473D
:104450004FF47F0C1CEAD0121EBF1CEAD11392EA63
:104460000C0F93EA0C0F00F0478090EA010F48BF51
:1044700042F480724FF0004C4CEA00204CEA0121DB
:1044800002EB0302A0FB0113A2F50002002918BFF2
:1044900043F001035B0028BF4FEA330342EB2242A3
:1044A0005FEA132C4CEBC2502EBFBCEB436FB2F54E
:1044B0007C0F70474FEA036CBCF1004F08BF20F03F
:1044C0000100B2F57C0F38BF70470BD582F0FF02B8
:1044D00012F5803FC8BF704700F1C040D8BF00F060
:1044E0000040704700F5000C5FEA4C0C48BF704775
:1044F000B0F1C04000F073B890EA010F0CEAD1139C
:1045000048BF42F48072624538BF634504D280EAF6
:10451000010000F00040704710B500F01AF800BF2D
:104520008900013E00F007B800F009B85FEA410CCD
:104530005FEA1C6C08D080EA010000F050B85FEA26
:10454000400C5FEA1C6CF6D14FF00040A0F58000F3
:1045500070470EF1020E2EF0030E5EF8044B24425B
:1045600004D44FEA4102B2F17F4F11D84FEA400321
:10457000B3F17F4F0CD80ED14FEAD07CB2F17F4F10
:104580000CEB4C0C0CF1020C08BF4CEBD17C04E0A2
:104590004FF0080C01E04FEAD17C0CEB4C0324FAFD
:1045A00003F404F00704B4F1040C06D20EEB840CFF
:1045B000BDE810404CF0010C6047DFE80CF0070844
:1045C00002024FF00040A0F5800010BD08464200F6
:1045D00018BFD2F1807288BF00F0004010BDFF21EB
:1045E00041EAD050C005704780F0004090EA010FCA
:1045F0007FF5F9AD81F0004100F007B890EA010FB6
:1046000048BF81F000413FF5EEAD421A04D882F078
:104610000042A0EB020011444FEAD0524FF07F4C11
:104620001CEA410FA2EBD15318BF9CEA026F4AD09B
:104630004FF0004C4CEA00204CEA012121FA03FC27
:10464000B0EB0C0C0FD412F0FE0F36D05FEA4C002A
:104650001DD5001240EBC25038BF70471CF03F0F11
:1046600018BF70470BE0A2F101025FEA1C2040EB8B
:10467000C25038BF70471CF07F0F18BF7047C3F19E
:104680002003994014BF401E20F0010070478008AD
:104690004FEA122308BF7047B0FA80FCA2EB0C026D
:1046A000CCF1280C60FA0CF093EA122F04BF00EB57
:1046B000C25070474FEAC3707047130A5FEADC10BC
:1046C00008BF7047F6E79CEA026F04D010EA5C0F5F
:1046D00008BF0020704710B5FFF73BFF40DFF63EF4
:1046E00081F000407047FEF709BC00000240000066
:1046F000000000A00000000005400000000000C80D
:10470000000000000C4000000000409C0000000081
:10471000194000000020BCBE000000003440000032
:10472000BFC91B8E00000004B5400000504BCFD025
:104730006607E2CF010000006C4100003E8251AAF2
:10474000DFEEA73401000000D9420000DCB5A0E292
:104750003A301F97FFFFFFFFB4450000FD25A0C8BA
:10476000E9A3C14FFFFFFFFFFF3F000000000080F3
:1047700000000000FF3F000000000080000000007B
:10478000BC470008000000207C0000006C0100080D
:10479000384800087C0000207406000088010008EA
:1047A0001C00000043000000F8FFFFFF0C000000A9
:1047B0000E0000000F0000002E00000000000000AE
:1047C00000000000000000000000000000000000E9
:1047D00000000000000000000000000000000000D9
:1047E0000000803F00000000000000000000803F4B
:1047F00000000000000000000000000000000000B9
:10480000000000000000000000A24A0400000000B8
:104810000000000001020304060708090000000070
:104820000000000000000000010203040102030474
:0848300006070809020406084E
:0400000508000131BD
:00000001FF
